{
  "_format": "hh-sol-artifact-1",
  "contractName": "NexaPayPayment",
  "sourceName": "contracts/NexaPayPayment.sol",
  "abi": [
    {
      "inputs": [
        {
          "internalType": "address[]",
          "name": "initialTokens",
          "type": "address[]"
        },
        {
          "internalType": "address",
          "name": "_mainnetFeeWallet",
          "type": "address"
        },
        {
          "internalType": "address",
          "name": "_testnetFeeWallet",
          "type": "address"
        },
        {
          "internalType": "uint256",
          "name": "_feePercentage",
          "type": "uint256"
        }
      ],
      "stateMutability": "nonpayable",
      "type": "constructor"
    },
    {
      "anonymous": false,
      "inputs": [
        {
          "indexed": false,
          "internalType": "uint256",
          "name": "newFeePercentage",
          "type": "uint256"
        }
      ],
      "name": "FeePercentageUpdated",
      "type": "event"
    },
    {
      "anonymous": false,
      "inputs": [
        {
          "indexed": false,
          "internalType": "address",
          "name": "newFeeWallet",
          "type": "address"
        }
      ],
      "name": "MainnetFeeWalletUpdated",
      "type": "event"
    },
    {
      "anonymous": false,
      "inputs": [
        {
          "indexed": true,
          "internalType": "address",
          "name": "payer",
          "type": "address"
        },
        {
          "indexed": true,
          "internalType": "address",
          "name": "merchant",
          "type": "address"
        },
        {
          "indexed": true,
          "internalType": "address",
          "name": "token",
          "type": "address"
        },
        {
          "indexed": false,
          "internalType": "uint256",
          "name": "amount",
          "type": "uint256"
        },
        {
          "indexed": false,
          "internalType": "uint256",
          "name": "feeAmount",
          "type": "uint256"
        },
        {
          "indexed": false,
          "internalType": "uint256",
          "name": "chainId",
          "type": "uint256"
        },
        {
          "indexed": false,
          "internalType": "string",
          "name": "paymentReference",
          "type": "string"
        }
      ],
      "name": "PaymentReceived",
      "type": "event"
    },
    {
      "anonymous": false,
      "inputs": [
        {
          "indexed": false,
          "internalType": "address",
          "name": "newFeeWallet",
          "type": "address"
        }
      ],
      "name": "TestnetFeeWalletUpdated",
      "type": "event"
    },
    {
      "anonymous": false,
      "inputs": [
        {
          "indexed": false,
          "internalType": "address",
          "name": "token",
          "type": "address"
        },
        {
          "indexed": false,
          "internalType": "bool",
          "name": "supported",
          "type": "bool"
        }
      ],
      "name": "TokenSupportUpdated",
      "type": "event"
    },
    {
      "inputs": [],
      "name": "feePercentage",
      "outputs": [
        {
          "internalType": "uint256",
          "name": "",
          "type": "uint256"
        }
      ],
      "stateMutability": "view",
      "type": "function"
    },
    {
      "inputs": [],
      "name": "mainnetFeeWallet",
      "outputs": [
        {
          "internalType": "address",
          "name": "",
          "type": "address"
        }
      ],
      "stateMutability": "view",
      "type": "function"
    },
    {
      "inputs": [],
      "name": "owner",
      "outputs": [
        {
          "internalType": "address",
          "name": "",
          "type": "address"
        }
      ],
      "stateMutability": "view",
      "type": "function"
    },
    {
      "inputs": [
        {
          "internalType": "address",
          "name": "token",
          "type": "address"
        },
        {
          "internalType": "address",
          "name": "merchant",
          "type": "address"
        },
        {
          "internalType": "uint256",
          "name": "amount",
          "type": "uint256"
        },
        {
          "internalType": "string",
          "name": "paymentReference",
          "type": "string"
        }
      ],
      "name": "pay",
      "outputs": [],
      "stateMutability": "nonpayable",
      "type": "function"
    },
    {
      "inputs": [
        {
          "internalType": "uint256",
          "name": "_feePercentage",
          "type": "uint256"
        }
      ],
      "name": "setFeePercentage",
      "outputs": [],
      "stateMutability": "nonpayable",
      "type": "function"
    },
    {
      "inputs": [
        {
          "internalType": "address",
          "name": "_feeWallet",
          "type": "address"
        }
      ],
      "name": "setMainnetFeeWallet",
      "outputs": [],
      "stateMutability": "nonpayable",
      "type": "function"
    },
    {
      "inputs": [
        {
          "internalType": "address",
          "name": "_feeWallet",
          "type": "address"
        }
      ],
      "name": "setTestnetFeeWallet",
      "outputs": [],
      "stateMutability": "nonpayable",
      "type": "function"
    },
    {
      "inputs": [
        {
          "internalType": "address",
          "name": "token",
          "type": "address"
        },
        {
          "internalType": "bool",
          "name": "supported",
          "type": "bool"
        }
      ],
      "name": "setTokenSupport",
      "outputs": [],
      "stateMutability": "nonpayable",
      "type": "function"
    },
    {
      "inputs": [
        {
          "internalType": "address",
          "name": "",
          "type": "address"
        }
      ],
      "name": "supportedTokens",
      "outputs": [
        {
          "internalType": "bool",
          "name": "",
          "type": "bool"
        }
      ],
      "stateMutability": "view",
      "type": "function"
    },
    {
      "inputs": [],
      "name": "testnetFeeWallet",
      "outputs": [
        {
          "internalType": "address",
          "name": "",
          "type": "address"
        }
      ],
      "stateMutability": "view",
      "type": "function"
    },
    {
      "inputs": [
        {
          "internalType": "address",
          "name": "token",
          "type": "address"
        },
        {
          "internalType": "uint256",
          "name": "amount",
          "type": "uint256"
        }
      ],
      "name": "withdrawFees",
      "outputs": [],
      "stateMutability": "nonpayable",
      "type": "function"
    }
  ],
  "bytecode": "0x60806040523480156200001157600080fd5b50604051620021ec380380620021ec833981810160405281019062000037919062000425565b336000806101000a81548173ffffffffffffffffffffffffffffffffffffffff021916908373ffffffffffffffffffffffffffffffffffffffff16021790555082600160006101000a81548173ffffffffffffffffffffffffffffffffffffffff021916908373ffffffffffffffffffffffffffffffffffffffff16021790555081600260006101000a81548173ffffffffffffffffffffffffffffffffffffffff021916908373ffffffffffffffffffffffffffffffffffffffff1602179055508060038190555060005b8451811015620001f157600160046000878481518110620001295762000128620004b6565b5b602002602001015173ffffffffffffffffffffffffffffffffffffffff1673ffffffffffffffffffffffffffffffffffffffff16815260200190815260200160002060006101000a81548160ff0219169083151502179055507fbbe72b7d9dcb594ee398a4a617885aba53d833e2aad601c813ce9df99fdeb49b858281518110620001b957620001b8620004b6565b5b60200260200101516001604051620001d392919062000513565b60405180910390a18080620001e8906200056f565b91505062000103565b5050505050620005bc565b6000604051905090565b600080fd5b600080fd5b600080fd5b6000601f19601f8301169050919050565b7f4e487b7100000000000000000000000000000000000000000000000000000000600052604160045260246000fd5b620002608262000215565b810181811067ffffffffffffffff8211171562000282576200028162000226565b5b80604052505050565b600062000297620001fc565b9050620002a5828262000255565b919050565b600067ffffffffffffffff821115620002c857620002c762000226565b5b602082029050602081019050919050565b600080fd5b600073ffffffffffffffffffffffffffffffffffffffff82169050919050565b60006200030b82620002de565b9050919050565b6200031d81620002fe565b81146200032957600080fd5b50565b6000815190506200033d8162000312565b92915050565b60006200035a6200035484620002aa565b6200028b565b9050808382526020820190506020840283018581111562000380576200037f620002d9565b5b835b81811015620003ad57806200039888826200032c565b84526020840193505060208101905062000382565b5050509392505050565b600082601f830112620003cf57620003ce62000210565b5b8151620003e184826020860162000343565b91505092915050565b6000819050919050565b620003ff81620003ea565b81146200040b57600080fd5b50565b6000815190506200041f81620003f4565b92915050565b6000806000806080858703121562000442576200044162000206565b5b600085015167ffffffffffffffff8111156200046357620004626200020b565b5b6200047187828801620003b7565b945050602062000484878288016200032c565b935050604062000497878288016200032c565b9250506060620004aa878288016200040e565b91505092959194509250565b7f4e487b7100000000000000000000000000000000000000000000000000000000600052603260045260246000fd5b620004f081620002fe565b82525050565b60008115159050919050565b6200050d81620004f6565b82525050565b60006040820190506200052a6000830185620004e5565b62000539602083018462000502565b9392505050565b7f4e487b7100000000000000000000000000000000000000000000000000000000600052601160045260246000fd5b60006200057c82620003ea565b91507fffffffffffffffffffffffffffffffffffffffffffffffffffffffffffffffff8203620005b157620005b062000540565b5b600182019050919050565b611c2080620005cc6000396000f3fe608060405234801561001057600080fd5b50600436106100a95760003560e01c80638da5cb5b116100715780638da5cb5b14610150578063a001ecdd1461016e578063ad3b1b471461018c578063ae06c1b7146101a8578063e9138644146101c4578063fc413dc7146101e0576100a9565b80630c6a753f146100ae5780635db694f8146100ca578063604d041a146100e857806368c4ac261461010457806384a6023214610134575b600080fd5b6100c860048036038101906100c391906110e6565b6101fe565b005b6100d2610320565b6040516100df9190611135565b60405180910390f35b61010260048036038101906100fd9190611150565b610346565b005b61011e60048036038101906101199190611150565b6104be565b60405161012b919061118c565b60405180910390f35b61014e60048036038101906101499190611242565b6104de565b005b610158610a5e565b6040516101659190611135565b60405180910390f35b610176610a82565b60405161018391906112d9565b60405180910390f35b6101a660048036038101906101a191906112f4565b610a88565b005b6101c260048036038101906101bd9190611334565b610cfc565b005b6101de60048036038101906101d99190611150565b610e10565b005b6101e8610f88565b6040516101f59190611135565b60405180910390f35b60008054906101000a900473ffffffffffffffffffffffffffffffffffffffff1673ffffffffffffffffffffffffffffffffffffffff163373ffffffffffffffffffffffffffffffffffffffff161461028c576040517f08c379a0000000000000000000000000000000000000000000000000000000008152600401610283906113be565b60405180910390fd5b80600460008473ffffffffffffffffffffffffffffffffffffffff1673ffffffffffffffffffffffffffffffffffffffff16815260200190815260200160002060006101000a81548160ff0219169083151502179055507fbbe72b7d9dcb594ee398a4a617885aba53d833e2aad601c813ce9df99fdeb49b82826040516103149291906113de565b60405180910390a15050565b600260009054906101000a900473ffffffffffffffffffffffffffffffffffffffff1681565b60008054906101000a900473ffffffffffffffffffffffffffffffffffffffff1673ffffffffffffffffffffffffffffffffffffffff163373ffffffffffffffffffffffffffffffffffffffff16146103d4576040517f08c379a00000000000000000000000000000000000000000000000000000000081526004016103cb906113be565b60405180910390fd5b600073ffffffffffffffffffffffffffffffffffffffff168173ffffffffffffffffffffffffffffffffffffffff1603610443576040517f08c379a000000000000000000000000000000000000000000000000000000000815260040161043a90611453565b60405180910390fd5b80600160006101000a81548173ffffffffffffffffffffffffffffffffffffffff021916908373ffffffffffffffffffffffffffffffffffffffff1602179055507f093ffd2956b50175682244524bae2139bba29a085a858b37467183ac2f186694816040516104b39190611135565b60405180910390a150565b60046020528060005260406000206000915054906101000a900460ff1681565b600460008673ffffffffffffffffffffffffffffffffffffffff1673ffffffffffffffffffffffffffffffffffffffff16815260200190815260200160002060009054906101000a900460ff1661056a576040517f08c379a0000000000000000000000000000000000000000000000000000000008152600401610561906114bf565b60405180910390fd5b600083116105ad576040517f08c379a00000000000000000000000000000000000000000000000000000000081526004016105a49061152b565b60405180910390fd5b600073ffffffffffffffffffffffffffffffffffffffff168473ffffffffffffffffffffffffffffffffffffffff160361061c576040517f08c379a000000000000000000000000000000000000000000000000000000000815260040161061390611597565b60405180910390fd5b6000469050600061062b610fae565b9050600073ffffffffffffffffffffffffffffffffffffffff168173ffffffffffffffffffffffffffffffffffffffff160361069c576040517f08c379a000000000000000000000000000000000000000000000000000000000815260040161069390611629565b60405180910390fd5b6000612710600354876106af9190611678565b6106b991906116e9565b9050600081876106c9919061171a565b9050868973ffffffffffffffffffffffffffffffffffffffff1663dd62ed3e33306040518363ffffffff1660e01b815260040161070792919061174e565b602060405180830381865afa158015610724573d6000803e3d6000fd5b505050506040513d601f19601f82011682018060405250810190610748919061178c565b1015610789576040517f08c379a000000000000000000000000000000000000000000000000000000000815260040161078090611805565b60405180910390fd5b868973ffffffffffffffffffffffffffffffffffffffff166370a08231336040518263ffffffff1660e01b81526004016107c39190611135565b602060405180830381865afa1580156107e0573d6000803e3d6000fd5b505050506040513d601f19601f82011682018060405250810190610804919061178c565b1015610845576040517f08c379a000000000000000000000000000000000000000000000000000000000815260040161083c90611871565b60405180910390fd5b60008973ffffffffffffffffffffffffffffffffffffffff166323b872dd3386866040518463ffffffff1660e01b815260040161088493929190611891565b6020604051808303816000875af11580156108a3573d6000803e3d6000fd5b505050506040513d601f19601f820116820180604052508101906108c791906118dd565b905080610909576040517f08c379a000000000000000000000000000000000000000000000000000000000815260040161090090611956565b60405180910390fd5b60008a73ffffffffffffffffffffffffffffffffffffffff166323b872dd338c866040518463ffffffff1660e01b815260040161094893929190611891565b6020604051808303816000875af1158015610967573d6000803e3d6000fd5b505050506040513d601f19601f8201168201806040525081019061098b91906118dd565b9050806109cd576040517f08c379a00000000000000000000000000000000000000000000000000000000081526004016109c4906119c2565b60405180910390fd5b8a73ffffffffffffffffffffffffffffffffffffffff168a73ffffffffffffffffffffffffffffffffffffffff163373ffffffffffffffffffffffffffffffffffffffff167f3ac32b0719959a21ed3d3f77d26513cfe8b9f357a31e590c8e44ed8dd2fec2698c888b8e8e604051610a49959493929190611a2f565b60405180910390a45050505050505050505050565b60008054906101000a900473ffffffffffffffffffffffffffffffffffffffff1681565b60035481565b60008054906101000a900473ffffffffffffffffffffffffffffffffffffffff1673ffffffffffffffffffffffffffffffffffffffff163373ffffffffffffffffffffffffffffffffffffffff1614610b16576040517f08c379a0000000000000000000000000000000000000000000000000000000008152600401610b0d906113be565b60405180910390fd5b60008111610b59576040517f08c379a0000000000000000000000000000000000000000000000000000000008152600401610b509061152b565b60405180910390fd5b808273ffffffffffffffffffffffffffffffffffffffff166370a08231306040518263ffffffff1660e01b8152600401610b939190611135565b602060405180830381865afa158015610bb0573d6000803e3d6000fd5b505050506040513d601f19601f82011682018060405250810190610bd4919061178c565b1015610c15576040517f08c379a0000000000000000000000000000000000000000000000000000000008152600401610c0c90611ac9565b60405180910390fd5b60008273ffffffffffffffffffffffffffffffffffffffff1663a9059cbb60008054906101000a900473ffffffffffffffffffffffffffffffffffffffff16846040518363ffffffff1660e01b8152600401610c72929190611ae9565b6020604051808303816000875af1158015610c91573d6000803e3d6000fd5b505050506040513d601f19601f82011682018060405250810190610cb591906118dd565b905080610cf7576040517f08c379a0000000000000000000000000000000000000000000000000000000008152600401610cee90611b5e565b60405180910390fd5b505050565b60008054906101000a900473ffffffffffffffffffffffffffffffffffffffff1673ffffffffffffffffffffffffffffffffffffffff163373ffffffffffffffffffffffffffffffffffffffff1614610d8a576040517f08c379a0000000000000000000000000000000000000000000000000000000008152600401610d81906113be565b60405180910390fd5b6103e8811115610dcf576040517f08c379a0000000000000000000000000000000000000000000000000000000008152600401610dc690611bca565b60405180910390fd5b806003819055507f74516f05eb4bd2461d57aa1e935ee553f86a3e02bfed7759f2f772915de3d9be81604051610e0591906112d9565b60405180910390a150565b60008054906101000a900473ffffffffffffffffffffffffffffffffffffffff1673ffffffffffffffffffffffffffffffffffffffff163373ffffffffffffffffffffffffffffffffffffffff1614610e9e576040517f08c379a0000000000000000000000000000000000000000000000000000000008152600401610e95906113be565b60405180910390fd5b600073ffffffffffffffffffffffffffffffffffffffff168173ffffffffffffffffffffffffffffffffffffffff1603610f0d576040517f08c379a0000000000000000000000000000000000000000000000000000000008152600401610f0490611453565b60405180910390fd5b80600260006101000a81548173ffffffffffffffffffffffffffffffffffffffff021916908373ffffffffffffffffffffffffffffffffffffffff1602179055507fb352d71d0265333700c847f8ff60a83f248f4be02e7d14429a09665f1073cdc281604051610f7d9190611135565b60405180910390a150565b600160009054906101000a900473ffffffffffffffffffffffffffffffffffffffff1681565b60008046905062aa36a78103610fe957600260009054906101000a900473ffffffffffffffffffffffffffffffffffffffff16915050611043565b6001810361101c57600160009054906101000a900473ffffffffffffffffffffffffffffffffffffffff16915050611043565b600160009054906101000a900473ffffffffffffffffffffffffffffffffffffffff169150505b90565b600080fd5b600080fd5b600073ffffffffffffffffffffffffffffffffffffffff82169050919050565b600061107b82611050565b9050919050565b61108b81611070565b811461109657600080fd5b50565b6000813590506110a881611082565b92915050565b60008115159050919050565b6110c3816110ae565b81146110ce57600080fd5b50565b6000813590506110e0816110ba565b92915050565b600080604083850312156110fd576110fc611046565b5b600061110b85828601611099565b925050602061111c858286016110d1565b9150509250929050565b61112f81611070565b82525050565b600060208201905061114a6000830184611126565b92915050565b60006020828403121561116657611165611046565b5b600061117484828501611099565b91505092915050565b611186816110ae565b82525050565b60006020820190506111a1600083018461117d565b92915050565b6000819050919050565b6111ba816111a7565b81146111c557600080fd5b50565b6000813590506111d7816111b1565b92915050565b600080fd5b600080fd5b600080fd5b60008083601f840112611202576112016111dd565b5b8235905067ffffffffffffffff81111561121f5761121e6111e2565b5b60208301915083600182028301111561123b5761123a6111e7565b5b9250929050565b60008060008060006080868803121561125e5761125d611046565b5b600061126c88828901611099565b955050602061127d88828901611099565b945050604061128e888289016111c8565b935050606086013567ffffffffffffffff8111156112af576112ae61104b565b5b6112bb888289016111ec565b92509250509295509295909350565b6112d3816111a7565b82525050565b60006020820190506112ee60008301846112ca565b92915050565b6000806040838503121561130b5761130a611046565b5b600061131985828601611099565b925050602061132a858286016111c8565b9150509250929050565b60006020828403121561134a57611349611046565b5b6000611358848285016111c8565b91505092915050565b600082825260208201905092915050565b7f4e6f7420617574686f72697a6564000000000000000000000000000000000000600082015250565b60006113a8600e83611361565b91506113b382611372565b602082019050919050565b600060208201905081810360008301526113d78161139b565b9050919050565b60006040820190506113f36000830185611126565b611400602083018461117d565b9392505050565b7f496e76616c6964206665652077616c6c65742061646472657373000000000000600082015250565b600061143d601a83611361565b915061144882611407565b602082019050919050565b6000602082019050818103600083015261146c81611430565b9050919050565b7f546f6b656e206e6f7420737570706f7274656400000000000000000000000000600082015250565b60006114a9601383611361565b91506114b482611473565b602082019050919050565b600060208201905081810360008301526114d88161149c565b9050919050565b7f416d6f756e74206d75737420626520706f736974697665000000000000000000600082015250565b6000611515601783611361565b9150611520826114df565b602082019050919050565b6000602082019050818103600083015261154481611508565b9050919050565b7f496e76616c6964206d65726368616e7400000000000000000000000000000000600082015250565b6000611581601083611361565b915061158c8261154b565b602082019050919050565b600060208201905081810360008301526115b081611574565b9050919050565b7f4665652077616c6c6574206e6f742073657420666f722074686973206e65747760008201527f6f726b0000000000000000000000000000000000000000000000000000000000602082015250565b6000611613602383611361565b915061161e826115b7565b604082019050919050565b6000602082019050818103600083015261164281611606565b9050919050565b7f4e487b7100000000000000000000000000000000000000000000000000000000600052601160045260246000fd5b6000611683826111a7565b915061168e836111a7565b925082820261169c816111a7565b915082820484148315176116b3576116b2611649565b5b5092915050565b7f4e487b7100000000000000000000000000000000000000000000000000000000600052601260045260246000fd5b60006116f4826111a7565b91506116ff836111a7565b92508261170f5761170e6116ba565b5b828204905092915050565b6000611725826111a7565b9150611730836111a7565b925082820390508181111561174857611747611649565b5b92915050565b60006040820190506117636000830185611126565b6117706020830184611126565b9392505050565b600081519050611786816111b1565b92915050565b6000602082840312156117a2576117a1611046565b5b60006117b084828501611777565b91505092915050565b7f496e73756666696369656e7420616c6c6f77616e636500000000000000000000600082015250565b60006117ef601683611361565b91506117fa826117b9565b602082019050919050565b6000602082019050818103600083015261181e816117e2565b9050919050565b7f496e73756666696369656e742062616c616e6365000000000000000000000000600082015250565b600061185b601483611361565b915061186682611825565b602082019050919050565b6000602082019050818103600083015261188a8161184e565b9050919050565b60006060820190506118a66000830186611126565b6118b36020830185611126565b6118c060408301846112ca565b949350505050565b6000815190506118d7816110ba565b92915050565b6000602082840312156118f3576118f2611046565b5b6000611901848285016118c8565b91505092915050565b7f466565207472616e73666572206661696c656400000000000000000000000000600082015250565b6000611940601383611361565b915061194b8261190a565b602082019050919050565b6000602082019050818103600083015261196f81611933565b9050919050565b7f4d65726368616e74207472616e73666572206661696c65640000000000000000600082015250565b60006119ac601883611361565b91506119b782611976565b602082019050919050565b600060208201905081810360008301526119db8161199f565b9050919050565b82818337600083830152505050565b6000601f19601f8301169050919050565b6000611a0e8385611361565b9350611a1b8385846119e2565b611a24836119f1565b840190509392505050565b6000608082019050611a4460008301886112ca565b611a5160208301876112ca565b611a5e60408301866112ca565b8181036060830152611a71818486611a02565b90509695505050505050565b7f496e73756666696369656e7420636f6e74726163742062616c616e6365000000600082015250565b6000611ab3601d83611361565b9150611abe82611a7d565b602082019050919050565b60006020820190508181036000830152611ae281611aa6565b9050919050565b6000604082019050611afe6000830185611126565b611b0b60208301846112ca565b9392505050565b7f466565207769746864726177616c206661696c65640000000000000000000000600082015250565b6000611b48601583611361565b9150611b5382611b12565b602082019050919050565b60006020820190508181036000830152611b7781611b3b565b9050919050565b7f4665652070657263656e746167652063616e6e6f742065786365656420313025600082015250565b6000611bb4602083611361565b9150611bbf82611b7e565b602082019050919050565b60006020820190508181036000830152611be381611ba7565b905091905056fea2646970667358221220fa3156a7039526bced26166d128d083e7042016eec2db60deaf3c88a380a722d64736f6c63430008140033",
  "linkReferences": {},
  "deployedLinkReferences": {}
}