{
  "_format": "hh-sol-artifact-1",
  "contractName": "NexaPayPayment",
  "sourceName": "contracts/NexaPayPayment.sol",
  "abi": [
    {
      "inputs": [
        {
          "internalType": "address[]",
          "name": "initialTokens",
          "type": "address[]"
        }
      ],
      "stateMutability": "nonpayable",
      "type": "constructor"
    },
    {
      "anonymous": false,
      "inputs": [
        {
          "indexed": true,
          "internalType": "address",
          "name": "payer",
          "type": "address"
        },
        {
          "indexed": true,
          "internalType": "address",
          "name": "merchant",
          "type": "address"
        },
        {
          "indexed": true,
          "internalType": "address",
          "name": "token",
          "type": "address"
        },
        {
          "indexed": false,
          "internalType": "uint256",
          "name": "amount",
          "type": "uint256"
        },
        {
          "indexed": false,
          "internalType": "string",
          "name": "paymentReference",
          "type": "string"
        }
      ],
      "name": "PaymentReceived",
      "type": "event"
    },
    {
      "anonymous": false,
      "inputs": [
        {
          "indexed": false,
          "internalType": "address",
          "name": "token",
          "type": "address"
        },
        {
          "indexed": false,
          "internalType": "bool",
          "name": "supported",
          "type": "bool"
        }
      ],
      "name": "TokenSupportUpdated",
      "type": "event"
    },
    {
      "inputs": [],
      "name": "owner",
      "outputs": [
        {
          "internalType": "address",
          "name": "",
          "type": "address"
        }
      ],
      "stateMutability": "view",
      "type": "function"
    },
    {
      "inputs": [
        {
          "internalType": "address",
          "name": "token",
          "type": "address"
        },
        {
          "internalType": "address",
          "name": "merchant",
          "type": "address"
        },
        {
          "internalType": "uint256",
          "name": "amount",
          "type": "uint256"
        },
        {
          "internalType": "string",
          "name": "paymentReference",
          "type": "string"
        }
      ],
      "name": "pay",
      "outputs": [],
      "stateMutability": "nonpayable",
      "type": "function"
    },
    {
      "inputs": [
        {
          "internalType": "address",
          "name": "token",
          "type": "address"
        },
        {
          "internalType": "bool",
          "name": "supported",
          "type": "bool"
        }
      ],
      "name": "setTokenSupport",
      "outputs": [],
      "stateMutability": "nonpayable",
      "type": "function"
    },
    {
      "inputs": [
        {
          "internalType": "address",
          "name": "",
          "type": "address"
        }
      ],
      "name": "supportedTokens",
      "outputs": [
        {
          "internalType": "bool",
          "name": "",
          "type": "bool"
        }
      ],
      "stateMutability": "view",
      "type": "function"
    }
  ],
  "bytecode": "0x60806040523480156200001157600080fd5b50604051620012693803806200126983398181016040528101906200003791906200035d565b336000806101000a81548173ffffffffffffffffffffffffffffffffffffffff021916908373ffffffffffffffffffffffffffffffffffffffff16021790555060005b8151811015620001675760018060008484815181106200009f576200009e620003ae565b5b602002602001015173ffffffffffffffffffffffffffffffffffffffff1673ffffffffffffffffffffffffffffffffffffffff16815260200190815260200160002060006101000a81548160ff0219169083151502179055507fbbe72b7d9dcb594ee398a4a617885aba53d833e2aad601c813ce9df99fdeb49b8282815181106200012f576200012e620003ae565b5b60200260200101516001604051620001499291906200040b565b60405180910390a180806200015e9062000471565b9150506200007a565b5050620004be565b6000604051905090565b600080fd5b600080fd5b600080fd5b6000601f19601f8301169050919050565b7f4e487b7100000000000000000000000000000000000000000000000000000000600052604160045260246000fd5b620001d38262000188565b810181811067ffffffffffffffff82111715620001f557620001f462000199565b5b80604052505050565b60006200020a6200016f565b9050620002188282620001c8565b919050565b600067ffffffffffffffff8211156200023b576200023a62000199565b5b602082029050602081019050919050565b600080fd5b600073ffffffffffffffffffffffffffffffffffffffff82169050919050565b60006200027e8262000251565b9050919050565b620002908162000271565b81146200029c57600080fd5b50565b600081519050620002b08162000285565b92915050565b6000620002cd620002c7846200021d565b620001fe565b90508083825260208201905060208402830185811115620002f357620002f26200024c565b5b835b818110156200032057806200030b88826200029f565b845260208401935050602081019050620002f5565b5050509392505050565b600082601f83011262000342576200034162000183565b5b815162000354848260208601620002b6565b91505092915050565b60006020828403121562000376576200037562000179565b5b600082015167ffffffffffffffff8111156200039757620003966200017e565b5b620003a5848285016200032a565b91505092915050565b7f4e487b7100000000000000000000000000000000000000000000000000000000600052603260045260246000fd5b620003e88162000271565b82525050565b60008115159050919050565b6200040581620003ee565b82525050565b6000604082019050620004226000830185620003dd565b620004316020830184620003fa565b9392505050565b7f4e487b7100000000000000000000000000000000000000000000000000000000600052601160045260246000fd5b6000819050919050565b60006200047e8262000467565b91507fffffffffffffffffffffffffffffffffffffffffffffffffffffffffffffffff8203620004b357620004b262000438565b5b600182019050919050565b610d9b80620004ce6000396000f3fe608060405234801561001057600080fd5b506004361061004c5760003560e01c80630c6a753f1461005157806368c4ac261461006d57806384a602321461009d5780638da5cb5b146100b9575b600080fd5b61006b600480360381019061006691906106e1565b6100d7565b005b61008760048036038101906100829190610721565b6101f9565b604051610094919061075d565b60405180910390f35b6100b760048036038101906100b29190610813565b610219565b005b6100c161061d565b6040516100ce91906108aa565b60405180910390f35b60008054906101000a900473ffffffffffffffffffffffffffffffffffffffff1673ffffffffffffffffffffffffffffffffffffffff163373ffffffffffffffffffffffffffffffffffffffff1614610165576040517f08c379a000000000000000000000000000000000000000000000000000000000815260040161015c90610922565b60405180910390fd5b80600160008473ffffffffffffffffffffffffffffffffffffffff1673ffffffffffffffffffffffffffffffffffffffff16815260200190815260200160002060006101000a81548160ff0219169083151502179055507fbbe72b7d9dcb594ee398a4a617885aba53d833e2aad601c813ce9df99fdeb49b82826040516101ed929190610942565b60405180910390a15050565b60016020528060005260406000206000915054906101000a900460ff1681565b600160008673ffffffffffffffffffffffffffffffffffffffff1673ffffffffffffffffffffffffffffffffffffffff16815260200190815260200160002060009054906101000a900460ff166102a5576040517f08c379a000000000000000000000000000000000000000000000000000000000815260040161029c906109b7565b60405180910390fd5b600083116102e8576040517f08c379a00000000000000000000000000000000000000000000000000000000081526004016102df90610a23565b60405180910390fd5b600073ffffffffffffffffffffffffffffffffffffffff168473ffffffffffffffffffffffffffffffffffffffff1603610357576040517f08c379a000000000000000000000000000000000000000000000000000000000815260040161034e90610a8f565b60405180910390fd5b828573ffffffffffffffffffffffffffffffffffffffff1663dd62ed3e33306040518363ffffffff1660e01b8152600401610393929190610aaf565b602060405180830381865afa1580156103b0573d6000803e3d6000fd5b505050506040513d601f19601f820116820180604052508101906103d49190610aed565b1015610415576040517f08c379a000000000000000000000000000000000000000000000000000000000815260040161040c90610b66565b60405180910390fd5b828573ffffffffffffffffffffffffffffffffffffffff166370a08231336040518263ffffffff1660e01b815260040161044f91906108aa565b602060405180830381865afa15801561046c573d6000803e3d6000fd5b505050506040513d601f19601f820116820180604052508101906104909190610aed565b10156104d1576040517f08c379a00000000000000000000000000000000000000000000000000000000081526004016104c890610bd2565b60405180910390fd5b60008573ffffffffffffffffffffffffffffffffffffffff166323b872dd3387876040518463ffffffff1660e01b815260040161051093929190610c01565b6020604051808303816000875af115801561052f573d6000803e3d6000fd5b505050506040513d601f19601f820116820180604052508101906105539190610c4d565b905080610595576040517f08c379a000000000000000000000000000000000000000000000000000000000815260040161058c90610cc6565b60405180910390fd5b8573ffffffffffffffffffffffffffffffffffffffff168573ffffffffffffffffffffffffffffffffffffffff163373ffffffffffffffffffffffffffffffffffffffff167f57f6b5ae1c70962785ee79f859a9363b398d5f7288ba67f81530bcd8ad72d8f387878760405161060d93929190610d33565b60405180910390a4505050505050565b60008054906101000a900473ffffffffffffffffffffffffffffffffffffffff1681565b600080fd5b600080fd5b600073ffffffffffffffffffffffffffffffffffffffff82169050919050565b60006106768261064b565b9050919050565b6106868161066b565b811461069157600080fd5b50565b6000813590506106a38161067d565b92915050565b60008115159050919050565b6106be816106a9565b81146106c957600080fd5b50565b6000813590506106db816106b5565b92915050565b600080604083850312156106f8576106f7610641565b5b600061070685828601610694565b9250506020610717858286016106cc565b9150509250929050565b60006020828403121561073757610736610641565b5b600061074584828501610694565b91505092915050565b610757816106a9565b82525050565b6000602082019050610772600083018461074e565b92915050565b6000819050919050565b61078b81610778565b811461079657600080fd5b50565b6000813590506107a881610782565b92915050565b600080fd5b600080fd5b600080fd5b60008083601f8401126107d3576107d26107ae565b5b8235905067ffffffffffffffff8111156107f0576107ef6107b3565b5b60208301915083600182028301111561080c5761080b6107b8565b5b9250929050565b60008060008060006080868803121561082f5761082e610641565b5b600061083d88828901610694565b955050602061084e88828901610694565b945050604061085f88828901610799565b935050606086013567ffffffffffffffff8111156108805761087f610646565b5b61088c888289016107bd565b92509250509295509295909350565b6108a48161066b565b82525050565b60006020820190506108bf600083018461089b565b92915050565b600082825260208201905092915050565b7f4e6f7420617574686f72697a6564000000000000000000000000000000000000600082015250565b600061090c600e836108c5565b9150610917826108d6565b602082019050919050565b6000602082019050818103600083015261093b816108ff565b9050919050565b6000604082019050610957600083018561089b565b610964602083018461074e565b9392505050565b7f546f6b656e206e6f7420737570706f7274656400000000000000000000000000600082015250565b60006109a16013836108c5565b91506109ac8261096b565b602082019050919050565b600060208201905081810360008301526109d081610994565b9050919050565b7f416d6f756e74206d75737420626520706f736974697665000000000000000000600082015250565b6000610a0d6017836108c5565b9150610a18826109d7565b602082019050919050565b60006020820190508181036000830152610a3c81610a00565b9050919050565b7f496e76616c6964206d65726368616e7400000000000000000000000000000000600082015250565b6000610a796010836108c5565b9150610a8482610a43565b602082019050919050565b60006020820190508181036000830152610aa881610a6c565b9050919050565b6000604082019050610ac4600083018561089b565b610ad1602083018461089b565b9392505050565b600081519050610ae781610782565b92915050565b600060208284031215610b0357610b02610641565b5b6000610b1184828501610ad8565b91505092915050565b7f496e73756666696369656e7420616c6c6f77616e636500000000000000000000600082015250565b6000610b506016836108c5565b9150610b5b82610b1a565b602082019050919050565b60006020820190508181036000830152610b7f81610b43565b9050919050565b7f496e73756666696369656e742062616c616e6365000000000000000000000000600082015250565b6000610bbc6014836108c5565b9150610bc782610b86565b602082019050919050565b60006020820190508181036000830152610beb81610baf565b9050919050565b610bfb81610778565b82525050565b6000606082019050610c16600083018661089b565b610c23602083018561089b565b610c306040830184610bf2565b949350505050565b600081519050610c47816106b5565b92915050565b600060208284031215610c6357610c62610641565b5b6000610c7184828501610c38565b91505092915050565b7f5472616e73666572206661696c65640000000000000000000000000000000000600082015250565b6000610cb0600f836108c5565b9150610cbb82610c7a565b602082019050919050565b60006020820190508181036000830152610cdf81610ca3565b9050919050565b82818337600083830152505050565b6000601f19601f8301169050919050565b6000610d1283856108c5565b9350610d1f838584610ce6565b610d2883610cf5565b840190509392505050565b6000604082019050610d486000830186610bf2565b8181036020830152610d5b818486610d06565b905094935050505056fea26469706673582212201c37938a8a6675b94c30c4de3e2c166eb247945bdc0c33ab55cffa62ea5d434564736f6c63430008140033",
  "linkReferences": {},
  "deployedLinkReferences": {}
}